{
  "_format": "hh-sol-artifact-1",
  "contractName": "BookLibrary",
  "sourceName": "contracts/BookLibrary.sol",
  "abi": [
    {
      "inputs": [
        {
          "internalType": "address",
          "name": "_superAdmin",
          "type": "address"
        }
      ],
      "stateMutability": "nonpayable",
      "type": "constructor"
    },
    {
      "anonymous": false,
      "inputs": [
        {
          "indexed": true,
          "internalType": "address",
          "name": "user",
          "type": "address"
        }
      ],
      "name": "AdminAdded",
      "type": "event"
    },
    {
      "anonymous": false,
      "inputs": [
        {
          "indexed": true,
          "internalType": "address",
          "name": "user",
          "type": "address"
        }
      ],
      "name": "AdminRemoved",
      "type": "event"
    },
    {
      "anonymous": false,
      "inputs": [
        {
          "indexed": true,
          "internalType": "uint256",
          "name": "id",
          "type": "uint256"
        },
        {
          "indexed": false,
          "internalType": "string",
          "name": "metadataURI",
          "type": "string"
        },
        {
          "indexed": false,
          "internalType": "uint256",
          "name": "quantity",
          "type": "uint256"
        }
      ],
      "name": "BookAdded",
      "type": "event"
    },
    {
      "anonymous": false,
      "inputs": [
        {
          "indexed": true,
          "internalType": "uint256",
          "name": "id",
          "type": "uint256"
        },
        {
          "indexed": true,
          "internalType": "address",
          "name": "borrower",
          "type": "address"
        }
      ],
      "name": "BookBorrowed",
      "type": "event"
    },
    {
      "anonymous": false,
      "inputs": [
        {
          "indexed": true,
          "internalType": "uint256",
          "name": "id",
          "type": "uint256"
        }
      ],
      "name": "BookDeleted",
      "type": "event"
    },
    {
      "anonymous": false,
      "inputs": [
        {
          "indexed": true,
          "internalType": "uint256",
          "name": "id",
          "type": "uint256"
        },
        {
          "indexed": true,
          "internalType": "address",
          "name": "borrower",
          "type": "address"
        }
      ],
      "name": "BookReturned",
      "type": "event"
    },
    {
      "anonymous": false,
      "inputs": [
        {
          "indexed": true,
          "internalType": "uint256",
          "name": "id",
          "type": "uint256"
        },
        {
          "indexed": false,
          "internalType": "string",
          "name": "metadataURI",
          "type": "string"
        },
        {
          "indexed": false,
          "internalType": "uint256",
          "name": "quantity",
          "type": "uint256"
        }
      ],
      "name": "BookUpdated",
      "type": "event"
    },
    {
      "anonymous": false,
      "inputs": [
        {
          "indexed": true,
          "internalType": "address",
          "name": "user",
          "type": "address"
        }
      ],
      "name": "UserAdded",
      "type": "event"
    },
    {
      "inputs": [
        {
          "internalType": "string",
          "name": "metadataURI",
          "type": "string"
        },
        {
          "internalType": "uint256",
          "name": "quantity",
          "type": "uint256"
        }
      ],
      "name": "addBook",
      "outputs": [],
      "stateMutability": "nonpayable",
      "type": "function"
    },
    {
      "inputs": [
        {
          "internalType": "address",
          "name": "user",
          "type": "address"
        }
      ],
      "name": "addUser",
      "outputs": [],
      "stateMutability": "nonpayable",
      "type": "function"
    },
    {
      "inputs": [
        {
          "internalType": "address",
          "name": "",
          "type": "address"
        }
      ],
      "name": "admins",
      "outputs": [
        {
          "internalType": "bool",
          "name": "",
          "type": "bool"
        }
      ],
      "stateMutability": "view",
      "type": "function"
    },
    {
      "inputs": [
        {
          "internalType": "uint256",
          "name": "",
          "type": "uint256"
        }
      ],
      "name": "books",
      "outputs": [
        {
          "internalType": "uint256",
          "name": "id",
          "type": "uint256"
        },
        {
          "internalType": "string",
          "name": "metadataURI",
          "type": "string"
        },
        {
          "internalType": "uint256",
          "name": "quantity",
          "type": "uint256"
        },
        {
          "internalType": "uint256",
          "name": "available",
          "type": "uint256"
        }
      ],
      "stateMutability": "view",
      "type": "function"
    },
    {
      "inputs": [
        {
          "internalType": "uint256",
          "name": "id",
          "type": "uint256"
        }
      ],
      "name": "borrowBook",
      "outputs": [],
      "stateMutability": "nonpayable",
      "type": "function"
    },
    {
      "inputs": [
        {
          "internalType": "uint256",
          "name": "",
          "type": "uint256"
        }
      ],
      "name": "borrowHistory",
      "outputs": [
        {
          "internalType": "uint256",
          "name": "bookId",
          "type": "uint256"
        },
        {
          "internalType": "address",
          "name": "borrower",
          "type": "address"
        },
        {
          "internalType": "uint256",
          "name": "timestamp",
          "type": "uint256"
        },
        {
          "internalType": "bool",
          "name": "returned",
          "type": "bool"
        }
      ],
      "stateMutability": "view",
      "type": "function"
    },
    {
      "inputs": [
        {
          "internalType": "uint256",
          "name": "id",
          "type": "uint256"
        }
      ],
      "name": "deleteBook",
      "outputs": [],
      "stateMutability": "nonpayable",
      "type": "function"
    },
    {
      "inputs": [],
      "name": "getAllAdmins",
      "outputs": [
        {
          "internalType": "address[]",
          "name": "",
          "type": "address[]"
        }
      ],
      "stateMutability": "view",
      "type": "function"
    },
    {
      "inputs": [],
      "name": "getAllUsers",
      "outputs": [
        {
          "internalType": "address[]",
          "name": "",
          "type": "address[]"
        }
      ],
      "stateMutability": "view",
      "type": "function"
    },
    {
      "inputs": [
        {
          "internalType": "uint256",
          "name": "id",
          "type": "uint256"
        }
      ],
      "name": "getBook",
      "outputs": [
        {
          "components": [
            {
              "internalType": "uint256",
              "name": "id",
              "type": "uint256"
            },
            {
              "internalType": "string",
              "name": "metadataURI",
              "type": "string"
            },
            {
              "internalType": "uint256",
              "name": "quantity",
              "type": "uint256"
            },
            {
              "internalType": "uint256",
              "name": "available",
              "type": "uint256"
            },
            {
              "internalType": "address[]",
              "name": "borrowers",
              "type": "address[]"
            }
          ],
          "internalType": "struct BookLibrary.Book",
          "name": "",
          "type": "tuple"
        }
      ],
      "stateMutability": "view",
      "type": "function"
    },
    {
      "inputs": [],
      "name": "getBooks",
      "outputs": [
        {
          "components": [
            {
              "internalType": "uint256",
              "name": "id",
              "type": "uint256"
            },
            {
              "internalType": "string",
              "name": "metadataURI",
              "type": "string"
            },
            {
              "internalType": "uint256",
              "name": "quantity",
              "type": "uint256"
            },
            {
              "internalType": "uint256",
              "name": "available",
              "type": "uint256"
            },
            {
              "internalType": "address[]",
              "name": "borrowers",
              "type": "address[]"
            }
          ],
          "internalType": "struct BookLibrary.Book[]",
          "name": "",
          "type": "tuple[]"
        }
      ],
      "stateMutability": "view",
      "type": "function"
    },
    {
      "inputs": [],
      "name": "getBorrowHistory",
      "outputs": [
        {
          "components": [
            {
              "internalType": "uint256",
              "name": "bookId",
              "type": "uint256"
            },
            {
              "internalType": "address",
              "name": "borrower",
              "type": "address"
            },
            {
              "internalType": "uint256",
              "name": "timestamp",
              "type": "uint256"
            },
            {
              "internalType": "bool",
              "name": "returned",
              "type": "bool"
            }
          ],
          "internalType": "struct BookLibrary.BorrowRecord[]",
          "name": "",
          "type": "tuple[]"
        }
      ],
      "stateMutability": "view",
      "type": "function"
    },
    {
      "inputs": [
        {
          "internalType": "address",
          "name": "user",
          "type": "address"
        }
      ],
      "name": "getUserBorrowHistory",
      "outputs": [
        {
          "components": [
            {
              "internalType": "uint256",
              "name": "bookId",
              "type": "uint256"
            },
            {
              "internalType": "address",
              "name": "borrower",
              "type": "address"
            },
            {
              "internalType": "uint256",
              "name": "timestamp",
              "type": "uint256"
            },
            {
              "internalType": "bool",
              "name": "returned",
              "type": "bool"
            }
          ],
          "internalType": "struct BookLibrary.BorrowRecord[]",
          "name": "",
          "type": "tuple[]"
        }
      ],
      "stateMutability": "view",
      "type": "function"
    },
    {
      "inputs": [
        {
          "internalType": "address",
          "name": "user",
          "type": "address"
        }
      ],
      "name": "isAdmin",
      "outputs": [
        {
          "internalType": "bool",
          "name": "",
          "type": "bool"
        }
      ],
      "stateMutability": "view",
      "type": "function"
    },
    {
      "inputs": [
        {
          "internalType": "address",
          "name": "user",
          "type": "address"
        }
      ],
      "name": "isUser",
      "outputs": [
        {
          "internalType": "bool",
          "name": "",
          "type": "bool"
        }
      ],
      "stateMutability": "view",
      "type": "function"
    },
    {
      "inputs": [
        {
          "internalType": "address",
          "name": "user",
          "type": "address"
        }
      ],
      "name": "makeAdmin",
      "outputs": [],
      "stateMutability": "nonpayable",
      "type": "function"
    },
    {
      "inputs": [],
      "name": "nextBookId",
      "outputs": [
        {
          "internalType": "uint256",
          "name": "",
          "type": "uint256"
        }
      ],
      "stateMutability": "view",
      "type": "function"
    },
    {
      "inputs": [],
      "name": "register",
      "outputs": [],
      "stateMutability": "nonpayable",
      "type": "function"
    },
    {
      "inputs": [
        {
          "internalType": "address",
          "name": "user",
          "type": "address"
        }
      ],
      "name": "removeAdmin",
      "outputs": [],
      "stateMutability": "nonpayable",
      "type": "function"
    },
    {
      "inputs": [
        {
          "internalType": "address",
          "name": "user",
          "type": "address"
        }
      ],
      "name": "removeUser",
      "outputs": [],
      "stateMutability": "nonpayable",
      "type": "function"
    },
    {
      "inputs": [
        {
          "internalType": "uint256",
          "name": "id",
          "type": "uint256"
        }
      ],
      "name": "returnBook",
      "outputs": [],
      "stateMutability": "nonpayable",
      "type": "function"
    },
    {
      "inputs": [],
      "name": "superAdmin",
      "outputs": [
        {
          "internalType": "address",
          "name": "",
          "type": "address"
        }
      ],
      "stateMutability": "view",
      "type": "function"
    },
    {
      "inputs": [
        {
          "internalType": "uint256",
          "name": "id",
          "type": "uint256"
        },
        {
          "internalType": "string",
          "name": "metadataURI",
          "type": "string"
        },
        {
          "internalType": "uint256",
          "name": "quantity",
          "type": "uint256"
        }
      ],
      "name": "updateBook",
      "outputs": [],
      "stateMutability": "nonpayable",
      "type": "function"
    },
    {
      "inputs": [
        {
          "internalType": "address",
          "name": "",
          "type": "address"
        },
        {
          "internalType": "uint256",
          "name": "",
          "type": "uint256"
        }
      ],
      "name": "userBorrowHistory",
      "outputs": [
        {
          "internalType": "uint256",
          "name": "bookId",
          "type": "uint256"
        },
        {
          "internalType": "address",
          "name": "borrower",
          "type": "address"
        },
        {
          "internalType": "uint256",
          "name": "timestamp",
          "type": "uint256"
        },
        {
          "internalType": "bool",
          "name": "returned",
          "type": "bool"
        }
      ],
      "stateMutability": "view",
      "type": "function"
    },
    {
      "inputs": [
        {
          "internalType": "address",
          "name": "",
          "type": "address"
        }
      ],
      "name": "users",
      "outputs": [
        {
          "internalType": "bool",
          "name": "",
          "type": "bool"
        }
      ],
      "stateMutability": "view",
      "type": "function"
    }
  ],
  "bytecode": "0x60806040523480156200001157600080fd5b5060405162003ff138038062003ff183398181016040528101906200003791906200025d565b806000806101000a81548173ffffffffffffffffffffffffffffffffffffffff021916908373ffffffffffffffffffffffffffffffffffffffff16021790555060018060008373ffffffffffffffffffffffffffffffffffffffff1673ffffffffffffffffffffffffffffffffffffffff16815260200190815260200160002060006101000a81548160ff0219169083151502179055506001600260008373ffffffffffffffffffffffffffffffffffffffff1673ffffffffffffffffffffffffffffffffffffffff16815260200190815260200160002060006101000a81548160ff0219169083151502179055506007819080600181540180825580915050600190039060005260206000200160009091909190916101000a81548173ffffffffffffffffffffffffffffffffffffffff021916908373ffffffffffffffffffffffffffffffffffffffff1602179055506008819080600181540180825580915050600190039060005260206000200160009091909190916101000a81548173ffffffffffffffffffffffffffffffffffffffff021916908373ffffffffffffffffffffffffffffffffffffffff160217905550506200028f565b600080fd5b600073ffffffffffffffffffffffffffffffffffffffff82169050919050565b60006200022582620001f8565b9050919050565b620002378162000218565b81146200024357600080fd5b50565b60008151905062000257816200022c565b92915050565b600060208284031215620002765762000275620001f3565b5b6000620002868482850162000246565b91505092915050565b613d52806200029f6000396000f3fe608060405234801561001057600080fd5b50600436106101735760003560e01c80637cf52d96116100de578063ca5140c911610097578063e0ff5b8b11610071578063e0ff5b8b14610463578063e2842d7914610493578063e9523c97146104b1578063f4bbfaa1146104cf57610173565b8063ca5140c9146103f9578063ca56ce8014610415578063d15608b91461044557610173565b80637cf52d96146103225780637e490a9e14610340578063985751881461035c5780639f34978914610378578063a13a685e14610396578063a87430ba146103c957610173565b8063421b2d8b11610130578063421b2d8b14610238578063429b62e514610254578063472905ca14610284578063637a3872146102a057806368744046146102bc57806379783485146102ef57610173565b80631785f53c146101785780631aa3a008146101945780632151fb381461019e57806324d7806c146101ba57806329575f6a146101ea5780634209fff114610208575b600080fd5b610192600480360381019061018d9190612b26565b6104eb565b005b61019c610885565b005b6101b860048036038101906101b39190612b89565b6109d7565b005b6101d460048036038101906101cf9190612b26565b610b89565b6040516101e19190612bd1565b60405180910390f35b6101f2610bdf565b6040516101ff9190612bfb565b60405180910390f35b610222600480360381019061021d9190612b26565b610c03565b60405161022f9190612bd1565b60405180910390f35b610252600480360381019061024d9190612b26565b610c59565b005b61026e60048036038101906102699190612b26565b610e8e565b60405161027b9190612bd1565b60405180910390f35b61029e60048036038101906102999190612b26565b610eae565b005b6102ba60048036038101906102b59190612d5c565b61108e565b005b6102d660048036038101906102d19190612b89565b611290565b6040516102e69493929190612e46565b60405180910390f35b61030960048036038101906103049190612e92565b611348565b6040516103199493929190612ed2565b60405180910390f35b61032a6113c2565b6040516103379190612f17565b60405180910390f35b61035a60048036038101906103559190612b89565b6113c8565b005b61037660048036038101906103719190612b26565b6117d6565b005b610380611af3565b60405161038d9190613188565b60405180910390f35b6103b060048036038101906103ab9190612b89565b611d70565b6040516103c09493929190612ed2565b60405180910390f35b6103e360048036038101906103de9190612b26565b611ddd565b6040516103f09190612bd1565b60405180910390f35b610413600480360381019061040e9190612b89565b611dfd565b005b61042f600480360381019061042a9190612b26565b6122f8565b60405161043c91906132bd565b60405180910390f35b61044d61241b565b60405161045a91906132bd565b60405180910390f35b61047d60048036038101906104789190612b89565b6124ff565b60405161048a919061335c565b60405180910390f35b61049b6126c3565b6040516104a891906133ed565b60405180910390f35b6104b9612751565b6040516104c691906133ed565b60405180910390f35b6104e960048036038101906104e4919061340f565b6127df565b005b60008054906101000a900473ffffffffffffffffffffffffffffffffffffffff1673ffffffffffffffffffffffffffffffffffffffff163373ffffffffffffffffffffffffffffffffffffffff1614610579576040517f08c379a0000000000000000000000000000000000000000000000000000000008152600401610570906134ca565b60405180910390fd5b60008054906101000a900473ffffffffffffffffffffffffffffffffffffffff1673ffffffffffffffffffffffffffffffffffffffff168173ffffffffffffffffffffffffffffffffffffffff1603610607576040517f08c379a00000000000000000000000000000000000000000000000000000000081526004016105fe90613536565b60405180910390fd5b600160008273ffffffffffffffffffffffffffffffffffffffff1673ffffffffffffffffffffffffffffffffffffffff16815260200190815260200160002060009054906101000a900460ff1615610882576000600160008373ffffffffffffffffffffffffffffffffffffffff1673ffffffffffffffffffffffffffffffffffffffff16815260200190815260200160002060006101000a81548160ff02191690831515021790555060005b60078054905081101561083d578173ffffffffffffffffffffffffffffffffffffffff16600782815481106106ec576106eb613556565b5b9060005260206000200160009054906101000a900473ffffffffffffffffffffffffffffffffffffffff1673ffffffffffffffffffffffffffffffffffffffff160361082a576007600160078054905061074691906135b4565b8154811061075757610756613556565b5b9060005260206000200160009054906101000a900473ffffffffffffffffffffffffffffffffffffffff166007828154811061079657610795613556565b5b9060005260206000200160006101000a81548173ffffffffffffffffffffffffffffffffffffffff021916908373ffffffffffffffffffffffffffffffffffffffff16021790555060078054806107f0576107ef6135e8565b5b6001900381819060005260206000200160006101000a81549073ffffffffffffffffffffffffffffffffffffffff0219169055905561083d565b808061083590613617565b9150506106b4565b508073ffffffffffffffffffffffffffffffffffffffff167fa3b62bc36326052d97ea62d63c3d60308ed4c3ea8ac079dd8499f1e9c4f80c0f60405160405180910390a25b50565b600260003373ffffffffffffffffffffffffffffffffffffffff1673ffffffffffffffffffffffffffffffffffffffff16815260200190815260200160002060009054906101000a900460ff166109d5576001600260003373ffffffffffffffffffffffffffffffffffffffff1673ffffffffffffffffffffffffffffffffffffffff16815260200190815260200160002060006101000a81548160ff0219169083151502179055506008339080600181540180825580915050600190039060005260206000200160009091909190916101000a81548173ffffffffffffffffffffffffffffffffffffffff021916908373ffffffffffffffffffffffffffffffffffffffff1602179055503373ffffffffffffffffffffffffffffffffffffffff167f19ef9a4877199f89440a26acb26895ec02ed86f2df1aeaa90dc18041b892f71f60405160405180910390a25b565b600160003373ffffffffffffffffffffffffffffffffffffffff1673ffffffffffffffffffffffffffffffffffffffff16815260200190815260200160002060009054906101000a900460ff16610a63576040517f08c379a0000000000000000000000000000000000000000000000000000000008152600401610a5a906136ab565b60405180910390fd5b60006004600083815260200190815260200160002090506000816002015411610ac1576040517f08c379a0000000000000000000000000000000000000000000000000000000008152600401610ab890613717565b60405180910390fd5b8060020154816003015414610b0b576040517f08c379a0000000000000000000000000000000000000000000000000000000008152600401610b02906137a9565b60405180910390fd5b60046000838152602001908152602001600020600080820160009055600182016000610b37919061297d565b60028201600090556003820160009055600482016000610b5791906129bd565b5050817ed5ed47574df40471633fbb8b010e6a63564a4d1b16a1de678595713ab3150d60405160405180910390a25050565b6000600160008373ffffffffffffffffffffffffffffffffffffffff1673ffffffffffffffffffffffffffffffffffffffff16815260200190815260200160002060009054906101000a900460ff169050919050565b60008054906101000a900473ffffffffffffffffffffffffffffffffffffffff1681565b6000600260008373ffffffffffffffffffffffffffffffffffffffff1673ffffffffffffffffffffffffffffffffffffffff16815260200190815260200160002060009054906101000a900460ff169050919050565b600160003373ffffffffffffffffffffffffffffffffffffffff1673ffffffffffffffffffffffffffffffffffffffff16815260200190815260200160002060009054906101000a900460ff1680610cfc575060008054906101000a900473ffffffffffffffffffffffffffffffffffffffff1673ffffffffffffffffffffffffffffffffffffffff163373ffffffffffffffffffffffffffffffffffffffff16145b610d3b576040517f08c379a0000000000000000000000000000000000000000000000000000000008152600401610d3290613815565b60405180910390fd5b600260008273ffffffffffffffffffffffffffffffffffffffff1673ffffffffffffffffffffffffffffffffffffffff16815260200190815260200160002060009054906101000a900460ff16610e8b576001600260008373ffffffffffffffffffffffffffffffffffffffff1673ffffffffffffffffffffffffffffffffffffffff16815260200190815260200160002060006101000a81548160ff0219169083151502179055506008819080600181540180825580915050600190039060005260206000200160009091909190916101000a81548173ffffffffffffffffffffffffffffffffffffffff021916908373ffffffffffffffffffffffffffffffffffffffff1602179055508073ffffffffffffffffffffffffffffffffffffffff167f19ef9a4877199f89440a26acb26895ec02ed86f2df1aeaa90dc18041b892f71f60405160405180910390a25b50565b60016020528060005260406000206000915054906101000a900460ff1681565b60008054906101000a900473ffffffffffffffffffffffffffffffffffffffff1673ffffffffffffffffffffffffffffffffffffffff163373ffffffffffffffffffffffffffffffffffffffff1614610f3c576040517f08c379a0000000000000000000000000000000000000000000000000000000008152600401610f33906134ca565b60405180910390fd5b600160008273ffffffffffffffffffffffffffffffffffffffff1673ffffffffffffffffffffffffffffffffffffffff16815260200190815260200160002060009054906101000a900460ff1661108b5760018060008373ffffffffffffffffffffffffffffffffffffffff1673ffffffffffffffffffffffffffffffffffffffff16815260200190815260200160002060006101000a81548160ff0219169083151502179055506007819080600181540180825580915050600190039060005260206000200160009091909190916101000a81548173ffffffffffffffffffffffffffffffffffffffff021916908373ffffffffffffffffffffffffffffffffffffffff1602179055508073ffffffffffffffffffffffffffffffffffffffff167f44d6d25963f097ad14f29f06854a01f575648a1ef82f30e562ccd3889717e33960405160405180910390a25b50565b600160003373ffffffffffffffffffffffffffffffffffffffff1673ffffffffffffffffffffffffffffffffffffffff16815260200190815260200160002060009054906101000a900460ff1661111a576040517f08c379a0000000000000000000000000000000000000000000000000000000008152600401611111906136ab565b60405180910390fd5b6000811161115d576040517f08c379a000000000000000000000000000000000000000000000000000000000815260040161115490613881565b60405180910390fd5b6040518060a001604052806003548152602001838152602001828152602001828152602001600067ffffffffffffffff81111561119d5761119c612c31565b5b6040519080825280602002602001820160405280156111cb5781602001602082028036833780820191505090505b508152506004600060035481526020019081526020016000206000820151816000015560208201518160010190816112039190613aad565b50604082015181600201556060820151816003015560808201518160040190805190602001906112349291906129de565b509050506003547fd4568aa4f169f5f39691140d56cd40c5a4f026868daa707efc62a9897431ba45838360405161126c929190613b7f565b60405180910390a26003600081548092919061128790613617565b91905055505050565b60046020528060005260406000206000915090508060000154908060010180546112b9906138d0565b80601f01602080910402602001604051908101604052809291908181526020018280546112e5906138d0565b80156113325780601f1061130757610100808354040283529160200191611332565b820191906000526020600020905b81548152906001019060200180831161131557829003601f168201915b5050505050908060020154908060030154905084565b6005602052816000526040600020818154811061136457600080fd5b9060005260206000209060040201600091509150508060000154908060010160009054906101000a900473ffffffffffffffffffffffffffffffffffffffff16908060020154908060030160009054906101000a900460ff16905084565b60035481565b60006004600083815260200190815260200160002090506000816002015411611426576040517f08c379a000000000000000000000000000000000000000000000000000000000815260040161141d90613717565b60405180910390fd5b600081600301541161146d576040517f08c379a000000000000000000000000000000000000000000000000000000000815260040161146490613bfb565b60405180910390fd5b60005b8160040180549050811015611540573373ffffffffffffffffffffffffffffffffffffffff168260040182815481106114ac576114ab613556565b5b9060005260206000200160009054906101000a900473ffffffffffffffffffffffffffffffffffffffff1673ffffffffffffffffffffffffffffffffffffffff160361152d576040517f08c379a000000000000000000000000000000000000000000000000000000000815260040161152490613c67565b60405180910390fd5b808061153890613617565b915050611470565b5080600301600081548092919061155690613c87565b919050555080600401339080600181540180825580915050600190039060005260206000200160009091909190916101000a81548173ffffffffffffffffffffffffffffffffffffffff021916908373ffffffffffffffffffffffffffffffffffffffff160217905550600060405180608001604052808481526020013373ffffffffffffffffffffffffffffffffffffffff168152602001428152602001600015158152509050600560003373ffffffffffffffffffffffffffffffffffffffff1673ffffffffffffffffffffffffffffffffffffffff1681526020019081526020016000208190806001815401808255809150506001900390600052602060002090600402016000909190919091506000820151816000015560208201518160010160006101000a81548173ffffffffffffffffffffffffffffffffffffffff021916908373ffffffffffffffffffffffffffffffffffffffff1602179055506040820151816002015560608201518160030160006101000a81548160ff021916908315150217905550505060068190806001815401808255809150506001900390600052602060002090600402016000909190919091506000820151816000015560208201518160010160006101000a81548173ffffffffffffffffffffffffffffffffffffffff021916908373ffffffffffffffffffffffffffffffffffffffff1602179055506040820151816002015560608201518160030160006101000a81548160ff02191690831515021790555050503373ffffffffffffffffffffffffffffffffffffffff16837f7534124779d4d1eaf9cabba5f94b2b281856aba81c295cde4c9e69483b04b8cc60405160405180910390a3505050565b600160003373ffffffffffffffffffffffffffffffffffffffff1673ffffffffffffffffffffffffffffffffffffffff16815260200190815260200160002060009054906101000a900460ff1680611879575060008054906101000a900473ffffffffffffffffffffffffffffffffffffffff1673ffffffffffffffffffffffffffffffffffffffff163373ffffffffffffffffffffffffffffffffffffffff16145b6118b8576040517f08c379a00000000000000000000000000000000000000000000000000000000081526004016118af90613815565b60405180910390fd5b600260008273ffffffffffffffffffffffffffffffffffffffff1673ffffffffffffffffffffffffffffffffffffffff16815260200190815260200160002060009054906101000a900460ff1615611af0576000600260008373ffffffffffffffffffffffffffffffffffffffff1673ffffffffffffffffffffffffffffffffffffffff16815260200190815260200160002060006101000a81548160ff02191690831515021790555060005b600880549050811015611aee578173ffffffffffffffffffffffffffffffffffffffff166008828154811061199d5761199c613556565b5b9060005260206000200160009054906101000a900473ffffffffffffffffffffffffffffffffffffffff1673ffffffffffffffffffffffffffffffffffffffff1603611adb57600860016008805490506119f791906135b4565b81548110611a0857611a07613556565b5b9060005260206000200160009054906101000a900473ffffffffffffffffffffffffffffffffffffffff1660088281548110611a4757611a46613556565b5b9060005260206000200160006101000a81548173ffffffffffffffffffffffffffffffffffffffff021916908373ffffffffffffffffffffffffffffffffffffffff1602179055506008805480611aa157611aa06135e8565b5b6001900381819060005260206000200160006101000a81549073ffffffffffffffffffffffffffffffffffffffff02191690559055611aee565b8080611ae690613617565b915050611965565b505b50565b60606000805b600354811015611b4457600060046000838152602001908152602001600020600201541115611b31578180611b2d90613617565b9250505b8080611b3c90613617565b915050611af9565b5060008167ffffffffffffffff811115611b6157611b60612c31565b5b604051908082528060200260200182016040528015611b9a57816020015b611b87612a68565b815260200190600190039081611b7f5790505b5090506000805b600354811015611d6657600060046000838152602001908152602001600020600201541115611d5357600460008281526020019081526020016000206040518060a001604052908160008201548152602001600182018054611c02906138d0565b80601f0160208091040260200160405190810160405280929190818152602001828054611c2e906138d0565b8015611c7b5780601f10611c5057610100808354040283529160200191611c7b565b820191906000526020600020905b815481529060010190602001808311611c5e57829003601f168201915b50505050508152602001600282015481526020016003820154815260200160048201805480602002602001604051908101604052809291908181526020018280548015611d1d57602002820191906000526020600020905b8160009054906101000a900473ffffffffffffffffffffffffffffffffffffffff1673ffffffffffffffffffffffffffffffffffffffff1681526020019060010190808311611cd3575b505050505081525050838381518110611d3957611d38613556565b5b60200260200101819052508180611d4f90613617565b9250505b8080611d5e90613617565b915050611ba1565b5081935050505090565b60068181548110611d8057600080fd5b90600052602060002090600402016000915090508060000154908060010160009054906101000a900473ffffffffffffffffffffffffffffffffffffffff16908060020154908060030160009054906101000a900460ff16905084565b60026020528060005260406000206000915054906101000a900460ff1681565b60006004600083815260200190815260200160002090506000816002015411611e5b576040517f08c379a0000000000000000000000000000000000000000000000000000000008152600401611e5290613717565b60405180910390fd5b6000805b8260040180549050811015611ff8573373ffffffffffffffffffffffffffffffffffffffff16836004018281548110611e9b57611e9a613556565b5b9060005260206000200160009054906101000a900473ffffffffffffffffffffffffffffffffffffffff1673ffffffffffffffffffffffffffffffffffffffff1603611fe557600191508260040160018460040180549050611efd91906135b4565b81548110611f0e57611f0d613556565b5b9060005260206000200160009054906101000a900473ffffffffffffffffffffffffffffffffffffffff16836004018281548110611f4f57611f4e613556565b5b9060005260206000200160006101000a81548173ffffffffffffffffffffffffffffffffffffffff021916908373ffffffffffffffffffffffffffffffffffffffff16021790555082600401805480611fab57611faa6135e8565b5b6001900381819060005260206000200160006101000a81549073ffffffffffffffffffffffffffffffffffffffff02191690559055611ff8565b8080611ff090613617565b915050611e5f565b5080612039576040517f08c379a000000000000000000000000000000000000000000000000000000000815260040161203090613cfc565b60405180910390fd5b81600301600081548092919061204e90613617565b91905055506000600560003373ffffffffffffffffffffffffffffffffffffffff1673ffffffffffffffffffffffffffffffffffffffff168152602001908152602001600020905060005b818054905081101561216157848282815481106120b9576120b8613556565b5b90600052602060002090600402016000015414801561210757508181815481106120e6576120e5613556565b5b906000526020600020906004020160030160009054906101000a900460ff16155b1561214e57600182828154811061212157612120613556565b5b906000526020600020906004020160030160006101000a81548160ff021916908315150217905550612161565b808061215990613617565b915050612099565b5060005b6006805490508110156122ad57846006828154811061218757612186613556565b5b90600052602060002090600402016000015414801561221657503373ffffffffffffffffffffffffffffffffffffffff16600682815481106121cc576121cb613556565b5b906000526020600020906004020160010160009054906101000a900473ffffffffffffffffffffffffffffffffffffffff1673ffffffffffffffffffffffffffffffffffffffff16145b801561225257506006818154811061223157612230613556565b5b906000526020600020906004020160030160009054906101000a900460ff16155b1561229a5760016006828154811061226d5761226c613556565b5b906000526020600020906004020160030160006101000a81548160ff0219169083151502179055506122ad565b80806122a590613617565b915050612165565b503373ffffffffffffffffffffffffffffffffffffffff16847f8430f3edf8e599216e82e74036a3997b56dda6283ea97e28f330b76e914eef6160405160405180910390a350505050565b6060600560008373ffffffffffffffffffffffffffffffffffffffff1673ffffffffffffffffffffffffffffffffffffffff168152602001908152602001600020805480602002602001604051908101604052809291908181526020016000905b828210156124105783829060005260206000209060040201604051806080016040529081600082015481526020016001820160009054906101000a900473ffffffffffffffffffffffffffffffffffffffff1673ffffffffffffffffffffffffffffffffffffffff1673ffffffffffffffffffffffffffffffffffffffff168152602001600282015481526020016003820160009054906101000a900460ff16151515158152505081526020019060010190612359565b505050509050919050565b60606006805480602002602001604051908101604052809291908181526020016000905b828210156124f65783829060005260206000209060040201604051806080016040529081600082015481526020016001820160009054906101000a900473ffffffffffffffffffffffffffffffffffffffff1673ffffffffffffffffffffffffffffffffffffffff1673ffffffffffffffffffffffffffffffffffffffff168152602001600282015481526020016003820160009054906101000a900460ff1615151515815250508152602001906001019061243f565b50505050905090565b612507612a68565b6000600460008481526020019081526020016000206002015411612560576040517f08c379a000000000000000000000000000000000000000000000000000000000815260040161255790613717565b60405180910390fd5b600460008381526020019081526020016000206040518060a001604052908160008201548152602001600182018054612598906138d0565b80601f01602080910402602001604051908101604052809291908181526020018280546125c4906138d0565b80156126115780601f106125e657610100808354040283529160200191612611565b820191906000526020600020905b8154815290600101906020018083116125f457829003601f168201915b505050505081526020016002820154815260200160038201548152602001600482018054806020026020016040519081016040528092919081815260200182805480156126b357602002820191906000526020600020905b8160009054906101000a900473ffffffffffffffffffffffffffffffffffffffff1673ffffffffffffffffffffffffffffffffffffffff1681526020019060010190808311612669575b5050505050815250509050919050565b6060600880548060200260200160405190810160405280929190818152602001828054801561274757602002820191906000526020600020905b8160009054906101000a900473ffffffffffffffffffffffffffffffffffffffff1673ffffffffffffffffffffffffffffffffffffffff16815260200190600101908083116126fd575b5050505050905090565b606060078054806020026020016040519081016040528092919081815260200182805480156127d557602002820191906000526020600020905b8160009054906101000a900473ffffffffffffffffffffffffffffffffffffffff1673ffffffffffffffffffffffffffffffffffffffff168152602001906001019080831161278b575b5050505050905090565b600160003373ffffffffffffffffffffffffffffffffffffffff1673ffffffffffffffffffffffffffffffffffffffff16815260200190815260200160002060009054906101000a900460ff1661286b576040517f08c379a0000000000000000000000000000000000000000000000000000000008152600401612862906136ab565b60405180910390fd5b600081116128ae576040517f08c379a00000000000000000000000000000000000000000000000000000000081526004016128a590613881565b60405180910390fd5b6000600460008581526020019081526020016000209050600081600201541161290c576040517f08c379a000000000000000000000000000000000000000000000000000000000815260040161290390613717565b60405180910390fd5b8281600101908161291d9190613aad565b50818160020181905550818160030154111561293d578181600301819055505b837fe48706ea2cd06b14e1ba9f932601591e50d99e399874ccdb14c28917d2c5d632848460405161296f929190613b7f565b60405180910390a250505050565b508054612989906138d0565b6000825580601f1061299b57506129ba565b601f0160209004906000526020600020908101906129b99190612a97565b5b50565b50805460008255906000526020600020908101906129db9190612a97565b50565b828054828255906000526020600020908101928215612a57579160200282015b82811115612a565782518260006101000a81548173ffffffffffffffffffffffffffffffffffffffff021916908373ffffffffffffffffffffffffffffffffffffffff160217905550916020019190600101906129fe565b5b509050612a649190612a97565b5090565b6040518060a0016040528060008152602001606081526020016000815260200160008152602001606081525090565b5b80821115612ab0576000816000905550600101612a98565b5090565b6000604051905090565b600080fd5b600080fd5b600073ffffffffffffffffffffffffffffffffffffffff82169050919050565b6000612af382612ac8565b9050919050565b612b0381612ae8565b8114612b0e57600080fd5b50565b600081359050612b2081612afa565b92915050565b600060208284031215612b3c57612b3b612abe565b5b6000612b4a84828501612b11565b91505092915050565b6000819050919050565b612b6681612b53565b8114612b7157600080fd5b50565b600081359050612b8381612b5d565b92915050565b600060208284031215612b9f57612b9e612abe565b5b6000612bad84828501612b74565b91505092915050565b60008115159050919050565b612bcb81612bb6565b82525050565b6000602082019050612be66000830184612bc2565b92915050565b612bf581612ae8565b82525050565b6000602082019050612c106000830184612bec565b92915050565b600080fd5b600080fd5b6000601f19601f8301169050919050565b7f4e487b7100000000000000000000000000000000000000000000000000000000600052604160045260246000fd5b612c6982612c20565b810181811067ffffffffffffffff82111715612c8857612c87612c31565b5b80604052505050565b6000612c9b612ab4565b9050612ca78282612c60565b919050565b600067ffffffffffffffff821115612cc757612cc6612c31565b5b612cd082612c20565b9050602081019050919050565b82818337600083830152505050565b6000612cff612cfa84612cac565b612c91565b905082815260208101848484011115612d1b57612d1a612c1b565b5b612d26848285612cdd565b509392505050565b600082601f830112612d4357612d42612c16565b5b8135612d53848260208601612cec565b91505092915050565b60008060408385031215612d7357612d72612abe565b5b600083013567ffffffffffffffff811115612d9157612d90612ac3565b5b612d9d85828601612d2e565b9250506020612dae85828601612b74565b9150509250929050565b612dc181612b53565b82525050565b600081519050919050565b600082825260208201905092915050565b60005b83811015612e01578082015181840152602081019050612de6565b60008484015250505050565b6000612e1882612dc7565b612e228185612dd2565b9350612e32818560208601612de3565b612e3b81612c20565b840191505092915050565b6000608082019050612e5b6000830187612db8565b8181036020830152612e6d8186612e0d565b9050612e7c6040830185612db8565b612e896060830184612db8565b95945050505050565b60008060408385031215612ea957612ea8612abe565b5b6000612eb785828601612b11565b9250506020612ec885828601612b74565b9150509250929050565b6000608082019050612ee76000830187612db8565b612ef46020830186612bec565b612f016040830185612db8565b612f0e6060830184612bc2565b95945050505050565b6000602082019050612f2c6000830184612db8565b92915050565b600081519050919050565b600082825260208201905092915050565b6000819050602082019050919050565b612f6781612b53565b82525050565b600082825260208201905092915050565b6000612f8982612dc7565b612f938185612f6d565b9350612fa3818560208601612de3565b612fac81612c20565b840191505092915050565b600081519050919050565b600082825260208201905092915050565b6000819050602082019050919050565b612fec81612ae8565b82525050565b6000612ffe8383612fe3565b60208301905092915050565b6000602082019050919050565b600061302282612fb7565b61302c8185612fc2565b935061303783612fd3565b8060005b8381101561306857815161304f8882612ff2565b975061305a8361300a565b92505060018101905061303b565b5085935050505092915050565b600060a08301600083015161308d6000860182612f5e565b50602083015184820360208601526130a58282612f7e565b91505060408301516130ba6040860182612f5e565b5060608301516130cd6060860182612f5e565b50608083015184820360808601526130e58282613017565b9150508091505092915050565b60006130fe8383613075565b905092915050565b6000602082019050919050565b600061311e82612f32565b6131288185612f3d565b93508360208202850161313a85612f4e565b8060005b85811015613176578484038952815161315785826130f2565b945061316283613106565b925060208a0199505060018101905061313e565b50829750879550505050505092915050565b600060208201905081810360008301526131a28184613113565b905092915050565b600081519050919050565b600082825260208201905092915050565b6000819050602082019050919050565b6131df81612bb6565b82525050565b6080820160008201516131fb6000850182612f5e565b50602082015161320e6020850182612fe3565b5060408201516132216040850182612f5e565b50606082015161323460608501826131d6565b50505050565b600061324683836131e5565b60808301905092915050565b6000602082019050919050565b600061326a826131aa565b61327481856131b5565b935061327f836131c6565b8060005b838110156132b0578151613297888261323a565b97506132a283613252565b925050600181019050613283565b5085935050505092915050565b600060208201905081810360008301526132d7818461325f565b905092915050565b600060a0830160008301516132f76000860182612f5e565b506020830151848203602086015261330f8282612f7e565b91505060408301516133246040860182612f5e565b5060608301516133376060860182612f5e565b506080830151848203608086015261334f8282613017565b9150508091505092915050565b6000602082019050818103600083015261337681846132df565b905092915050565b600082825260208201905092915050565b600061339a82612fb7565b6133a4818561337e565b93506133af83612fd3565b8060005b838110156133e05781516133c78882612ff2565b97506133d28361300a565b9250506001810190506133b3565b5085935050505092915050565b60006020820190508181036000830152613407818461338f565b905092915050565b60008060006060848603121561342857613427612abe565b5b600061343686828701612b74565b935050602084013567ffffffffffffffff81111561345757613456612ac3565b5b61346386828701612d2e565b925050604061347486828701612b74565b9150509250925092565b7f4e6f742073757065722061646d696e0000000000000000000000000000000000600082015250565b60006134b4600f83612dd2565b91506134bf8261347e565b602082019050919050565b600060208201905081810360008301526134e3816134a7565b9050919050565b7f43616e6e6f742072656d6f76652073757065722061646d696e00000000000000600082015250565b6000613520601983612dd2565b915061352b826134ea565b602082019050919050565b6000602082019050818103600083015261354f81613513565b9050919050565b7f4e487b7100000000000000000000000000000000000000000000000000000000600052603260045260246000fd5b7f4e487b7100000000000000000000000000000000000000000000000000000000600052601160045260246000fd5b60006135bf82612b53565b91506135ca83612b53565b92508282039050818111156135e2576135e1613585565b5b92915050565b7f4e487b7100000000000000000000000000000000000000000000000000000000600052603160045260246000fd5b600061362282612b53565b91507fffffffffffffffffffffffffffffffffffffffffffffffffffffffffffffffff820361365457613653613585565b5b600182019050919050565b7f4e6f742061646d696e0000000000000000000000000000000000000000000000600082015250565b6000613695600983612dd2565b91506136a08261365f565b602082019050919050565b600060208201905081810360008301526136c481613688565b9050919050565b7f426f6f6b20646f6573206e6f7420657869737400000000000000000000000000600082015250565b6000613701601383612dd2565b915061370c826136cb565b602082019050919050565b60006020820190508181036000830152613730816136f4565b9050919050565b7f43616e6e6f742064656c65746520626f6f6b207768696c6520636f706965732060008201527f61726520626f72726f7765640000000000000000000000000000000000000000602082015250565b6000613793602c83612dd2565b915061379e82613737565b604082019050919050565b600060208201905081810360008301526137c281613786565b9050919050565b7f4e6f742061646d696e206f722073757065722061646d696e0000000000000000600082015250565b60006137ff601883612dd2565b915061380a826137c9565b602082019050919050565b6000602082019050818103600083015261382e816137f2565b9050919050565b7f5175616e74697479206d75737420626520706f73697469766500000000000000600082015250565b600061386b601983612dd2565b915061387682613835565b602082019050919050565b6000602082019050818103600083015261389a8161385e565b9050919050565b7f4e487b7100000000000000000000000000000000000000000000000000000000600052602260045260246000fd5b600060028204905060018216806138e857607f821691505b6020821081036138fb576138fa6138a1565b5b50919050565b60008190508160005260206000209050919050565b60006020601f8301049050919050565b600082821b905092915050565b6000600883026139637fffffffffffffffffffffffffffffffffffffffffffffffffffffffffffffffff82613926565b61396d8683613926565b95508019841693508086168417925050509392505050565b6000819050919050565b60006139aa6139a56139a084612b53565b613985565b612b53565b9050919050565b6000819050919050565b6139c48361398f565b6139d86139d0826139b1565b848454613933565b825550505050565b600090565b6139ed6139e0565b6139f88184846139bb565b505050565b5b81811015613a1c57613a116000826139e5565b6001810190506139fe565b5050565b601f821115613a6157613a3281613901565b613a3b84613916565b81016020851015613a4a578190505b613a5e613a5685613916565b8301826139fd565b50505b505050565b600082821c905092915050565b6000613a8460001984600802613a66565b1980831691505092915050565b6000613a9d8383613a73565b9150826002028217905092915050565b613ab682612dc7565b67ffffffffffffffff811115613acf57613ace612c31565b5b613ad982546138d0565b613ae4828285613a20565b600060209050601f831160018114613b175760008415613b05578287015190505b613b0f8582613a91565b865550613b77565b601f198416613b2586613901565b60005b82811015613b4d57848901518255600182019150602085019450602081019050613b28565b86831015613b6a5784890151613b66601f891682613a73565b8355505b6001600288020188555050505b505050505050565b60006040820190508181036000830152613b998185612e0d565b9050613ba86020830184612db8565b9392505050565b7f4e6f20636f7069657320617661696c61626c6500000000000000000000000000600082015250565b6000613be5601383612dd2565b9150613bf082613baf565b602082019050919050565b60006020820190508181036000830152613c1481613bd8565b9050919050565b7f416c726561647920626f72726f77656400000000000000000000000000000000600082015250565b6000613c51601083612dd2565b9150613c5c82613c1b565b602082019050919050565b60006020820190508181036000830152613c8081613c44565b9050919050565b6000613c9282612b53565b915060008203613ca557613ca4613585565b5b600182039050919050565b7f4e6f74206120626f72726f776572000000000000000000000000000000000000600082015250565b6000613ce6600e83612dd2565b9150613cf182613cb0565b602082019050919050565b60006020820190508181036000830152613d1581613cd9565b905091905056fea2646970667358221220bb18b88774f09291038c1ea73804fe229975d511a5d6122e1aa276b55460d54f64736f6c63430008140033",
  "linkReferences": {},
  "deployedLinkReferences": {}
}